:020000040800F2
:1000000000000220C1630008CF070008D5070008E0
:10001000DB070008E1070008E70700080000000010
:10002000000000000000000000000000ED070008D4
:10003000FB07000800000000090800081708000876
:1000400011640008116400081164000811640008BC
:1000500011640008116400081164000811640008AC
:10006000116400081164000811640008116400089C
:10007000116400081164000811640008116400088C
:10008000116400081164000811640008116400087C
:10009000116400081164000811640008116400086C
:1000A000116400081164000811640008116400085C
:1000B000116400081164000811640008116400084C
:1000C000116400081164000811640008116400083C
:1000D000116400081164000811640008116400082C
:1000E000116400081164000811640008116400081C
:1000F000116400081164000811640008116400080C
:1001000011640008116400081164000811640008FB
:1001100011640008116400081164000811640008EB
:1001200011640008116400081164000811640008DB
:1001300011640008116400081164000811640008CB
:100140001164000811640008116400082508000803
:1001500011640008116400081164000811640008AB
:10016000116400081164000811640008116400089B
:100170001164000811640008116400080000000008
:0801800011640008116400087D
:1001900010B5054C237833B9044B13B10448AFF3C1
:1001A00000800123237010BD0C020020000000001D
:1001B000CC74000808B5034B1BB103490348AFF3E7
:1001C000008008BD0000000010020020CC74000870
:1001D00001F0FF01102A2BDB10F0070F08D010F8F8
:1001E000013B013A8B422DD010F0070F42B3F6D1FC
:1001F000F0B441EA012141EA014122F007047FF015
:1002000000070023F0E80256083C85EA010586EA6B
:10021000010685FA47F5A3FA87F586FA47F6A5FAA7
:1002200087F68EB9EED1F0BC01F0FF0102F00702B3
:1002300032B110F8013B013A83EA010313B1F8D15E
:100240000020704701387047002D06BF354603383F
:10025000073815F0010F07D1013015F4807F02BF78
:10026000013015F4C03F0130F0BC0138704700BFC9
:1002700053B94AB9002908BF00281CBF4FF0FF310D
:100280004FF0FF3000F06EB9ADF1080C6DE904CE0F
:1002900000F006F8DDF804E0DDE9022304B0704761
:1002A0002DE9F047089D04468C46002B40F08380E2
:1002B0008A42174647D9B2FA82F242B1C2F120000F
:1002C00024FA00F09140974040EA010C94404FEA34
:1002D0001748230CBCFBF8F61FFA87FE08FB16C173
:1002E00043EA014306FB0EF1994209D9FB1806F1D6
:1002F000FF3080F01981994240F21681023E3B4462
:100300005B1AA4B2B3FBF8F008FB103344EA0344D1
:1003100000FB0EFEA64509D93C1900F1FF3380F021
:100320000581A64540F2028102383C4440EA06407D
:10033000A4EB0E0400261DB1D4400023C5E9004300
:100340003146BDE8F08702B9FFDEB2FA82F2002A38
:1003500050D1CB1B4FEA174E1FFA87F80126B3FB8B
:10036000FEFC210C0EFB1C3341EA034108FB0CF39D
:100370008B4207D979180CF1FF3002D28B4200F280
:10038000E9808446C91AA3B2B1FBFEF00EFB10113E
:1003900043EA014408FB00F8A04507D93C1900F1E5
:1003A000FF3302D2A04500F2D9801846A4EB08041E
:1003B00040EA0C40BFE78B4209D9002D00F0B18024
:1003C0000026C5E9000130463146BDE8F087B3FAA2
:1003D00083F6002E4AD18B4202D3824200F2B880CB
:1003E000841A61EB030101208C46002DA8D0C5E9D9
:1003F000004CA5E7C2F1200320FA03F6974001FA6A
:1004000002F04FEA174ED9403043030CB1FBFEF621
:100410001FFA87F80EFB161143EA014306FB08F1A9
:10042000994204FA02F409D9FB1806F1FF3C80F066
:100430008D80994240F28A80023E3B445B1A81B231
:10044000B3FBFEF00EFB103341EA034100FB08F35F
:100450008B4207D9791800F1FF3C73D28B4271D9D6
:1004600002383944CB1A40EA064678E7C6F1200C38
:1004700003FA06F422FA0CF31C4320FA0CF701FAF3
:1004800006F34FEA144E21FA0CF11F433B0CB1FB6B
:10049000FEF91FFA84F80EFB191143EA014109FB2A
:1004A00008FA8A4502FA06F200FA06F308D961183A
:1004B00009F1FF3048D28A4546D9A9F10209214401
:1004C000A1EB0A01BFB2B1FBFEF00EFB101147EA2F
:1004D000014700FB08F8B84507D9E71900F1FF31DB
:1004E0002ED2B8452CD90238274440EA0940A7EB60
:1004F0000807A0FB02894F45C64649461AD317D0C4
:100500005DB1B3EB0E0267EB010707FA0CFCF2409A
:100510004CEA0202F740C5E9002700263146BDE853
:10052000F0872E4628460BE70646E9E61846FDE624
:100530004345E5D2B8EB020E69EB04010138DFE771
:100540000846D2E760468DE78146B9E7664675E71B
:1005500030464AE7ACF1020C394413E702383C4418
:1005600024E700BF704700BF80B588B002AF04F039
:1005700023FA00F087F800F0EFF800F085F9384B27
:100580001B6B374A43F008031363364B1B68354A2D
:1005900023F040731360334B1B68324A43F080737F
:1005A0001360304B5B692F4A43F4805353612D4BEA
:1005B0005B692C4A83F4805353610D2005F04EFF94
:1005C00003467B61284A2949786906F011F87B695E
:1005D0001B781A467B6901331B7813443B614FF447
:1005E0008C7005F03BFF0346FB600023BB600023DB
:1005F0007B60FB6800221A71FB6818225A62FB6854
:1006000010221A611A4A1B49F86806F083FE034655
:10061000BB60BB68002B21D13B1D0093164B06220B
:100620001649F86806F079FE0346BB60BB68002BEC
:1006300014D17B681A46124B1A60114B1B680E4A84
:1006400013443A1D1946F86806F034FF0346BB60B0
:100650000B4B1B687A681344094A1360FEE700BF1E
:1006600000380240000C0240E4740008EC740008FA
:1006700018000020000000205C04002038750008ED
:100680002802002080B594B000AF07F1200330228B
:100690000021184605F0EAFE07F10C0300221A605B
:1006A0005A609A60DA601A610023BB60284B1B6CA9
:1006B000274A43F080531364254B1B6C03F080538F
:1006C000BB60BB6800237B60224B1B68214A43F45C
:1006D000804313601F4B1B6803F480437B607B687F
:1006E00001233B624FF480337B620223BB634FF4F0
:1006F0008003FB6304233B64A8237B640223BB6465
:100700000723FB6407F12003184603F05BFA034656
:10071000002B01D000F056F80F23FB6002233B6151
:1007200000237B614FF4A053BB614FF48053FB6106
:1007300007F10C030521184603F0BCFC0346002B0F
:1007400001D000F03FF800BF5037BD4680BD00BF6C
:10075000003802400070004080B485B000AF002334
:10076000FB60174B1B6B164A43F004031363144BD7
:100770001B6B03F00403FB60FB680023BB60104BA2
:100780001B6B0F4A43F0800313630D4B1B6B03F08D
:100790008003BB60BB6800237B60094B1B6B084A6E
:1007A00043F001031363064B1B6B03F001037B60F3
:1007B0007B6800BF1437BD465DF8047B704700BFFF
:1007C0000038024080B400AF72B600BFFEE780B4CC
:1007D00000AFFEE780B400AFFEE780B400AFFEE7F5
:1007E00080B400AFFEE780B400AFFEE780B400AF96
:1007F00000BFBD465DF8047B704780B400AF00BF0A
:10080000BD465DF8047B704780B400AF00BFBD46B5
:100810005DF8047B704780B500AF04F01FF900BF9E
:1008200080BD000080B500AF024800F071FE00BF3F
:1008300080BD00BF3419002080B483B000AF002316
:100840007B60104B5B6C0F4A43F4804353640D4B49
:100850005B6C03F480437B607B6800233B60094B47
:100860001B6C084A43F080531364064B1B6C03F067
:1008700080533B603B6800BF0C37BD465DF8047B8E
:10088000704700BF0038024080B500AF0022124917
:10089000124804F039F90346002B01D0FFF792FF0C
:1008A0000F490E4804F060F90346002B01D0FFF712
:1008B00089FF0C49094805F00DFD0346002B01D0C6
:1008C000FFF780FF054804F076F90346002B01D0BE
:1008D000FFF778FF00BF80BD2800002064040020DF
:1008E000A40000207800002080B483B000AF03464D
:1008F0003960FB713B6812221A80034B18460C3793
:10090000BD465DF8047B70474400002080B483B08E
:1009100000AF03463960FB713B6804221A80034B29
:1009200018460C37BD465DF8047B70475800002020
:1009300080B582B000AF03463960FB71FB79002BB4
:1009400005D13A680749084805F067F904E03A68B4
:100950000449054805F061F9024B18460837BD46C1
:1009600080BD00BF34070020F074000880B582B05D
:1009700000AF03463960FB713A680449044805F04A
:100980004CF9024B18460837BD4680BD340700209D
:100990000875000880B582B000AF03463960FB716E
:1009A0003B681A221A8000F043F8024B18460837B9
:1009B000BD4680BD5C00002080B582B000AF03461C
:1009C0003960FB71FB79002B05D13A68074908486B
:1009D00005F023F904E03A680449054805F01DF9DB
:1009E000024B18460837BD4680BD00BF34070020C3
:1009F0001C75000880B582B000AF03463960FB71FA
:100A0000FB79002B05D13A680749084805F005F93C
:100A100004E03A680449054805F0FFF8024B18461F
:100A20000837BD4680BD00BF340700202875000888
:100A300080B584B000AF0F4B1B68FB600E4B1B688A
:100A4000BB600E4B1B687B60FA687B681344FB60DD
:100A5000FB68002B09D008220949F86800F014F857
:100A600004220849B86800F00FF800BF1037BD46EF
:100A700080BD00BF107AFF1F147AFF1F187AFF1F76
:100A80005E0000206E00002080B487B000AFF860E8
:100A9000B9601346FB710023FB750023FB7527E04B
:100AA000FB681B0F092B0BD8FB681B0FDAB2FB7D11
:100AB0005B001946BB680B443032D2B21A700AE0B0
:100AC000FB681B0FDAB2FB7D5B001946BB680B4469
:100AD0003732D2B21A70FB681B01FB60FB7D5B00F2
:100AE0000133BA68134400221A70FB7D0133FB7591
:100AF000FA7DFB799A42D3D300BF00BF1C37BD46B5
:100B00005DF8047B7047000080B500AF0022054906
:100B1000054805F0F4FB0549034805F00EFC0023E9
:100B2000184680BD341100206404002034090020E0
:100B300080B400AF00231846BD465DF8047B7047C3
:100B400080B483B000AF03463960FB711346BB80AD
:100B5000FB79232B4AD801A252F823F0ED0B0008B1
:100B6000ED0B0008ED0B0008ED0B0008ED0B000885
:100B7000ED0B0008ED0B0008ED0B0008ED0B000875
:100B8000ED0B0008ED0B0008ED0B0008ED0B000865
:100B9000ED0B0008ED0B0008ED0B0008ED0B000855
:100BA000ED0B0008ED0B0008ED0B0008ED0B000845
:100BB000ED0B0008ED0B0008ED0B0008ED0B000835
:100BC000ED0B0008ED0B0008ED0B0008ED0B000825
:100BD000ED0B0008ED0B0008ED0B0008ED0B000815
:100BE000ED0B0008ED0B0008ED0B000800BF002323
:100BF00018460C37BD465DF8047B704780B582B05F
:100C000000AF786039607968054805F096FB0448C4
:100C100005F0ACFB002318460837BD4680BD00BF79
:100C20006404002080B487B000AFF860B960134658
:100C3000FB710023FB7597F9173018461C37BD462A
:100C40005DF8047B7047000080B58AB000AF786023
:100C500007F1140300221A605A609A60DA601A6180
:100C60007B681B68B3F1A04F3AD100233B611E4B58
:100C70001B6B1D4A43F0010313631B4B1B6B03F0FB
:100C800001033B613B694FF4C0537B610223BB61AD
:100C90000023FB6103233B620A237B6207F11403F9
:100CA0001946124803F0DAFB0F4B5B6B0E4A43F018
:100CB000800353630023FB600B4B5B6C0A4A43F4D5
:100CC00080435364084B5B6C03F48043FB60FB6818
:100CD00000220021432003F038FE432003F051FEA0
:100CE00000BF2837BD4680BD0038024000000240EA
:100CF00080B582B000AF78607B68D3F804247B684D
:100D000003F571731946104603F0A0FF00BF0837C2
:100D1000BD4680BD80B582B000AF78600B46FB70E9
:100D20007B68D3F80404FA7879681346DB009B1AD1
:100D30009B000B4403F502731A68FB78194603F015
:100D4000DAFF00BF0837BD4680BD80B582B000AF76
:100D500078600B46FB707B68D3F80404FA787968F6
:100D60001346DB009B1A9B000B4448331A68FB7840
:100D7000194604F023F800BF0837BD4680BD80B592
:100D800082B000AF78607B68D3F80434184604F072
:100D900037F900BF0837BD4680BD80B584B000AFCD
:100DA00078600123FB737B68DB68002B02D1002392
:100DB000FB7308E07B68DB68022B02D10123FB7325
:100DC00001E0FFF7FFFC7B68D3F80434FA7B11469F
:100DD000184604F0D7F87B68D3F80434184604F0BA
:100DE00083F800BF1037BD4680BD000080B582B0DB
:100DF00000AF78607B68D3F80434184604F0D2F86A
:100E00007B681B6803F560631B687A68126802F5EB
:100E1000606243F0010313607B681B6A002B05D0FE
:100E2000044B1B69034A43F00603136100BF0837F4
:100E3000BD4680BD00ED00E080B582B000AF7860B7
:100E40007B68D3F80434184604F0C2F800BF0837B2
:100E5000BD4680BD80B582B000AF78600B46FB70A8
:100E60007B68D3F80434FA781146184604F010F978
:100E700000BF0837BD4680BD80B582B000AF786046
:100E80000B46FB707B68D3F80434FA781146184699
:100E900004F0D8F800BF0837BD4680BD80B582B0E9
:100EA00000AF78607B68D3F80434184604F016F974
:100EB00000BF0837BD4680BD80B582B000AF786006
:100EC0007B68D3F80434184604F013F900BF0837E0
:100ED000BD4680BD80B582B000AF78607B681B786E
:100EE000002B3CD1204A7B68C2F804347B681E4A40
:100EF000C3F8C4221C4B4FF0A0421A601A4B0422C4
:100F00005A60194B0222DA60174B00221A61164B05
:100F100002229A61144B0022DA61134B00221A62FA
:100F2000114B00225A62104B0022DA620E4B002253
:100F30001A630D4800F09CF90346002B01D0FFF71F
:100F400041FC8021084801F0FAFA402200210648BD
:100F500001F0AEFA80220121034801F0A9FA002332
:100F600018460837BD4680BD3419002080B584B0CE
:100F700000AF78600023FB730023BB737B68D3F85A
:100F8000C432184600F091FA0346FB73FB7B184607
:100F900000F042F90346BB73BB7B18461037BD46D1
:100FA00080BD80B584B000AF7860084611461A460F
:100FB0000346FB700B46BB7013463B800023FB735C
:100FC0000023BB737B68D3F8C402BB783A88F978F6
:100FD00000F075FE0346FB73FB7B184600F01CF91E
:100FE0000346BB73BB7B18461037BD4680BD80B53A
:100FF00084B000AF78600B46FB700023FB730023C6
:10100000BB737B68D3F8C432FA781146184600F0F7
:10101000BEFE0346FB73FB7B184600F0FDF803465B
:10102000BB73BB7B18461037BD4680BD80B584B00E
:1010300000AF78600B46FB700023FB730023BB738B
:101040007B68D3F8C432FA781146184600F096FF50
:101050000346FB73FB7B184600F0DEF80346BB73C8
:10106000BB7B18461037BD4680BD80B584B000AF4D
:1010700078600B46FB700023FB730023BB737B6817
:10108000D3F8C432FA781146184600F0DBFF034665
:10109000FB73FB7B184600F0BFF80346BB73BB7BBA
:1010A00018461037BD4680BD80B485B000AF78606B
:1010B0000B46FB707B68D3F8C432FB6097F90330B2
:1010C000002B0BDAFB7803F07F02F9681346DB0094
:1010D0009B1A9B000B443E331B780BE0FB7803F01C
:1010E0007F02F9681346DB009B1A9B000B4403F553
:1010F000FF731B7818461437BD465DF8047B7047B4
:1011000080B584B000AF78600B46FB700023FB73A2
:101110000023BB737B68D3F8C432FA7811461846B3
:1011200000F0A8FD0346FB73FB7B184600F074F843
:101130000346BB73BB7B18461037BD4680BD80B5E8
:1011400086B000AFF8607A603B600B46FB7200230C
:10115000FB750023BB75FB68D3F8C402F97A3B68C2
:101160007A6800F0C1FE0346FB75FB7D184600F06F
:1011700053F80346BB75BB7D18461837BD4680BD86
:1011800080B586B000AFF8607A603B600B46FB72BA
:101190000023FB750023BB75FB68D3F8C402F97A02
:1011A0003B687A6800F03DFE0346FB75FB7D184600
:1011B00000F032F80346BB75BB7D18461837BD46B4
:1011C00080BD80B582B000AF78600B46FB707B6855
:1011D000D3F8C432FA781146184600F06DFE034683
:1011E00018460837BD4680BD80B483B000AF786034
:1011F000034B18460C37BD465DF8047B704700BFB3
:101200002C02002080B483B000AF786000BF0C37A0
:10121000BD465DF8047B704780B485B000AF0346DF
:10122000FB710023FB73FB79032B17D801A252F843
:1012300023F000BF451200084B12000851120008AD
:10124000571200080023FB730BE00323FB7308E035
:101250000123FB7305E00323FB7302E00323FB730D
:1012600000BFFB7B18461437BD465DF8047B704712
:10127000F0B58FB00AAF78607B68002B01D10123F5
:101280000FE17B681B68BB607B6893F8BD33DBB202
:10129000002B06D17B68002283F8BC237868FFF717
:1012A000D3FC7B68032283F8BD23BB68DB6B03F4AC
:1012B0008073002B02D17B6800221A617B681B6857
:1012C000184601F06EFA7B681B683B607E686D46CD
:1012D00006F110040FCC0FC50FCC0FC594E8030026
:1012E00085E80300331D0ECB386801F045F903464D
:1012F000002B05D07B68022283F8BD230123D0E0B8
:101300007B681B680021184601F05CFA0023FB7320
:101310004AE0FA7B79681346DB009B1A9B000B447A
:101320003D3301221A70FA7B79681346DB009B1A61
:101330009B000B443C33FA7B1A70FA7BFB7B98B220
:1013400079681346DB009B1A9B000B44423302462C
:101350001A80FA7B79681346DB009B1A9B000B44CA
:101360003F3300221A70FA7B79681346DB009B1A20
:101370009B000B44443300221A60FA7B79681346C1
:10138000DB009B1A9B000B44483300221A60FA7B57
:1013900079681346DB009B1A9B000B4450330022F4
:1013A0001A60FB7B0133FB73FA7B7B685B689A42B4
:1013B000AFD30023FB7344E0FA7B79681346DB006C
:1013C0009B1A9B000B4403F2FD1300221A70FA7B58
:1013D00079681346DB009B1A9B000B4403F5FE73F0
:1013E000FA7B1A70FA7B79681346DB009B1A9B0024
:1013F0000B4403F2FF1300221A70FA7B796813463C
:10140000DB009B1A9B000B4403F5017300221A605A
:10141000FA7B79681346DB009B1A9B000B4403F5AB
:10142000027300221A60FA7B79681346DB009B1A6C
:101430009B000B4403F5047300221A60FB7B01330D
:10144000FB73FA7B7B685B689A42B5D37B681B6849
:101450003B607E686D4606F110040FCC0FC50FCCC3
:101460000FC594E8030085E80300331D0ECB3868F0
:1014700001F0D2F90346002B05D07B68022283F8E5
:10148000BD2301230DE07B68002283F838207B68B0
:10149000012283F8BD237B681B68184602F01AFA04
:1014A000002318461437BD46F0BD80B584B000AFA8
:1014B00078607B681B68FB607B6893F8BC33012B0A
:1014C00001D1022320E07B68012283F8BC237B68E2
:1014D0009B6A012B09D17B689B69012B05D0FB68B6
:1014E0009B6B43F48032FB689A637B681B681846E9
:1014F00001F046F97B681B68184602F0CAF97B6860
:10150000002283F8BC23002318461037BD4680BD57
:1015100090B58DB000AF78607B681B683B623B6A1A
:10152000FB617B681B68184602F088FA0346002BB3
:1015300040F09D837B681B68184602F0ECF9034677
:10154000002B00F093837B681B68184602F0E3F9D8
:10155000034603F00203022B07D17B681B685A691C
:101560007B681B6802F002025A617B681B681846A0
:1015700002F0D1F9034603F01003102B61D17B6810
:101580001B689A697B681B6822F010029A613B6AAB
:101590001B6ABB61BB6903F00F021346DB009B1A99
:1015A0009B0003F5FC737A68134404337B61BB69C9
:1015B0005B0C03F00F03022B24D1BA6947F6F073DA
:1015C0001340002B35D07B69D968BB691B099BB2DE
:1015D000C3F30A039BB21A46386A02F037F87B69F4
:1015E000DA68BB691B09C3F30A031A447B69DA6032
:1015F0007B699A69BB691B09C3F30A031A447B69B7
:101600009A6116E0BB695B0C03F00F03062B10D147
:101610007B6803F5717308221946386A02F016F8E0
:101620007B699A69BB691B09C3F30A031A447B6986
:101630009A617B681B689A697B681B6842F010029C
:101640009A617B681B68184602F065F9034603F44B
:101650000023B3F5002F6ED100237B627B681B68EB
:10166000184602F06BF9B86262E0BB6A03F001034E
:10167000002B57D07B681B687A6AD2B21146184695
:1016800002F090F938613B6903F00103002B0CD0A4
:101690007B6A5A01FB69134403F530631A46012340
:1016A0009360796A786800F0B1FD3B6903F0080344
:1016B000002B0CD07B6A5A01FB69134403F530639D
:1016C0001A4608239360796A786800F0ABFE3B699C
:1016D00003F01003002B08D07B6A5A01FB69134406
:1016E00003F530631A46102393603B6903F020032F
:1016F000002B08D07B6A5A01FB69134403F5306361
:101700001A46202393603B6903F40053002B09D051
:101710007B6A5A01FB69134403F530631A464FF4A0
:10172000005393607B6A01337B62BB6A5B08BB62D8
:10173000BB6A002B99D17B681B68184602F0EBF856
:10174000034603F48023B3F5802F40F0C0807B680C
:101750001B68184602F00CF9B86200237B62B2E005
:10176000BB6A03F00103002B00F0A7807B681B68B5
:101770007A6AD2B21146184602F032F938613B69F2
:1017800003F00103002B57D07B6A03F00F03012203
:1017900002FA03F3FB60FB6903F500635A6BFB6815
:1017A000DB43F96901F5006113404B637B6A5A0121
:1017B000FB69134403F510631A46012393607B68A9
:1017C0001B69012B32D179687A6A1346DB009B1AB8
:1017D0009B000B444833196878687A6A1346DB002B
:1017E0009B1A9B00034444331B68194478687A6A47
:1017F0001346DB009B1A9B000344483319607B6A45
:10180000002B13D179687A6A1346DB009B1A9B0080
:101810000B4450331B68002B08D17B6818687B6829
:1018200003F571731A46012102F03AF97B6ADBB2C3
:1018300019467868FFF789FA3B6903F00803002B23
:1018400008D07B6A5A01FB69134403F510631A46FA
:10185000082393603B6903F01003002B08D07B6AD8
:101860005A01FB69134403F510631A461023936071
:101870003B6903F04003002B08D07B6A5A01FB69E7
:10188000134403F510631A46402393603B6903F049
:101890000203002B08D07B6A5A01FB69134403F54D
:1018A00010631A46022393603B6903F08003002B08
:1018B00003D0796A786800F01BFC7B6A01337B6295
:1018C000BB6A5B08BB62BB6A002B7FF449AF7B68D5
:1018D0001B68184602F01FF8034603F00043B3F1FB
:1018E000004F22D1FB6903F500635B68FA6902F5DA
:1018F000006223F0010353607B6893F8F433012BFB
:1019000008D17B68002283F8F4230021786800F076
:1019100027FE02E07868FFF78FFA7B681B685A6938
:101920007B681B6802F000425A617B681B6818469E
:1019300001F0F1FF034603F40063B3F5006F12D129
:10194000FB6903F500639B6803F00103012B02D1DF
:101950007868FFF74BFA7B681B685A697B681B68DD
:1019600002F400625A617B681B68184601F0D3FFDD
:10197000034603F48053B3F5805F40F0C780FB69F2
:1019800003F500635B68FA6902F5006223F0010366
:1019900053607B681B681021184601F0A1F80023F2
:1019A000FB6256E0FB6A5A01FB69134403F51063BE
:1019B0001A464FF67F339360FB6A5A01FB69134462
:1019C00003F510631B68FA6A5101FA690A4402F5CB
:1019D000106223F400131360FB6A5A01FB6913447D
:1019E00003F510631B68FA6A5101FA690A4402F5AB
:1019F000106243F000631360FB6A5A01FB691344F1
:101A000003F530631A464FF67F339360FB6A5A0141
:101A1000FB69134403F530631B68FA6A5101FA69E4
:101A20000A4402F5306223F400131360FB6A5A0182
:101A3000FB69134403F530631B68FA6A5101FA69C4
:101A40000A4402F5306243F000631360FB6A01331D
:101A5000FB627B685B68FA6A9A42A3D3FB6903F571
:101A60000063DB69FA6902F5006243F00113D36198
:101A70007B681B6B002B16D0FB6903F50063D3F862
:101A80008430FA6902F5006243F00B03C2F8843037
:101A9000FB6903F500635B6CFA6902F5006243F0D1
:101AA0000B03536415E0FB6903F500635B69FA6996
:101AB00002F5006243F4005343F02B035361FB69CA
:101AC00003F500631B69FA6902F5006243F00B033A
:101AD0001361FB6903F500631B68FA6902F5006294
:101AE00023F4FE6313607B6818687B681B69D9B2B6
:101AF0007B6803F571731A4601F0D2FF7B681B689F
:101B00005A697B681B6802F480525A617B681B68C3
:101B1000184601F000FF034603F40053B3F5005FDD
:101B200024D17B681B68184601F096FF7B681B6810
:101B3000184601F036F803461A467B68DA607B687F
:101B40001C6802F07FFC01467B68DB68DBB21A464A
:101B5000204600F073FD7868FFF71FF97B681B686B
:101B60005A697B681B6802F400525A617B681B68E3
:101B7000184601F0D0FE034603F00803082B0AD1F3
:101B80007868FFF7FCF87B681B685A697B681B68FC
:101B900002F008025A617B681B68184601F0BBFE20
:101BA000034603F48013B3F5801F0FD100237B623B
:101BB0007B6ADBB219467868FFF75EF97B681B68C1
:101BC0005A697B681B6802F480125A617B681B6843
:101BD000184601F0A0FE034603F40013B3F5001FFE
:101BE0000FD100237B627B6ADBB219467868FFF76E
:101BF00031F97B681B685A697B681B6802F4001224
:101C00005A617B681B68184601F085FE034603F0A5
:101C10008043B3F1804F0AD17868FFF73FF97B68C2
:101C20001B685A697B681B6802F080425A617B68B6
:101C30001B68184601F06FFE034603F00403042BF3
:101C400015D17B681B685B68BB61BB6903F004034B
:101C5000002B02D07868FFF72FF97B681B68596862
:101C60007B681B68BA690A435A6000E000BF3437DA
:101C7000BD4690BD80B582B000AF78600B46FB706A
:101C80007B6893F8BC33012B01D1022313E07B68FE
:101C9000012283F8BC237B68FA7883F838207B68BC
:101CA0001B68FA781146184601F0CDFD7B680022CA
:101CB00083F8BC23002318460837BD4680BD80B595
:101CC00084B000AF7860084611461A460346FB70A0
:101CD0000B463B801346BB700023FB7297F9033021
:101CE000002B0FDAFB7803F00F021346DB009B1A80
:101CF0009B0038337A6813440433FB60FB6801228D
:101D00005A700FE0FB7803F00F021346DB009B1ABA
:101D10009B0003F5FC737A6813440433FB60FB6893
:101D200000225A70FB7803F00F03DAB2FB681A70D6
:101D30003A88FB689A60FB68BA78DA70FB685B786F
:101D4000002B04D0FB681B789AB2FB68DA80BB7862
:101D5000022B02D1FB6800221A717B6893F8BC3316
:101D6000012B01D102230EE07B68012283F8BC2302
:101D70007B681B68F968184600F038FF7B68002212
:101D800083F8BC23FB7A18461037BD4680BD80B56A
:101D900084B000AF78600B46FB7097F90330002BDE
:101DA0000FDAFB7803F00F021346DB009B1A9B004F
:101DB00038337A6813440433FB60FB6801225A709D
:101DC0000FE0FB7803F00F021346DB009B1A9B0029
:101DD00003F5FC737A6813440433FB60FB6800224C
:101DE0005A70FB7803F00F03DAB2FB681A707B6855
:101DF00093F8BC33012B01D102230EE07B68012252
:101E000083F8BC237B681B68F968184600F076FFEE
:101E10007B68002283F8BC23002318461037BD4698
:101E200080BD80B586B000AFF8607A603B600B463D
:101E3000FB72FB7A03F00F021346DB009B1A9B0038
:101E400003F5FC73FA68134404337B617B697A6899
:101E5000DA607B693A685A617B6900229A617B6922
:101E600000225A70FB7A03F00F03DAB27B691A7012
:101E7000FB681B69012B02D17A687B691A61FB7AC6
:101E800003F00F03002B09D1FB681868FB681B697E
:101E9000DBB21A46796901F051FA08E0FB6818686C
:101EA000FB681B69DBB21A46796901F003F800236D
:101EB00018461837BD4680BD80B483B000AF786047
:101EC0000B46FB70FB7803F00F0279681346DB00CA
:101ED0009B1A9B000B4403F505731B6818460C37CF
:101EE000BD465DF8047B704780B586B000AFF860F2
:101EF0007A603B600B46FB72FB7A03F00F021346DD
:101F0000DB009B1A9B003833FA68134404337B616F
:101F10007B697A68DA607B693A685A617B6900227A
:101F20009A617B6901225A70FB7A03F00F03DAB2DF
:101F30007B691A70FB681B69012B02D17A687B6987
:101F40001A61FB7A03F00F03002B09D1FB681868B4
:101F5000FB681B69DBB21A46796901F0EFF908E00A
:101F6000FB681868FB681B69DBB21A46796900F0E8
:101F7000A1FF002318461837BD4680BD80B584B048
:101F800000AF78600B46FB70FB7803F00F027B68B4
:101F90005B689A4201D9012350E097F90330002B86
:101FA0000FDAFB7803F00F021346DB009B1A9B004D
:101FB00038337A6813440433FB60FB6801225A709B
:101FC0000DE0FA781346DB009B1A9B0003F5FC73C7
:101FD0007A6813440433FB60FB6800225A70FB6884
:101FE00001229A70FB7803F00F03DAB2FB681A70D3
:101FF0007B6893F8BC33012B01D102231EE07B6880
:10200000012283F8BC237B681B68F968184601F03D
:1020100046FBFB7803F00F03002B0AD17B6818689E
:102020007B681B69D9B27B6803F571731A4601F0AE
:1020300037FD7B68002283F8BC2300231846103745
:10204000BD4680BD80B584B000AF78600B46FB70A4
:10205000FB7803F00F027B685B689A4201D9012389
:1020600042E097F90330002B0FDAFB7803F00F0200
:102070001346DB009B1A9B0038337A681344043301
:10208000FB60FB6801225A700FE0FB7803F00F023F
:102090001346DB009B1A9B0003F5FC737A6813441C
:1020A0000433FB60FB6800225A70FB6800229A70C0
:1020B000FB7803F00F03DAB2FB681A707B6893F8C1
:1020C000BC33012B01D102230EE07B68012283F88F
:1020D000BC237B681B68F968184601F04EFB7B68DF
:1020E000002283F8BC23002318461037BD4680BD6C
:1020F00080B58AB002AF786039607B681B687B610D
:102100007B693B613A681346DB009B1A9B003833BE
:102110007A6813440433FB60FB689A69FB685B6967
:102120009A4201D901236CE0FB685A69FB689B69FC
:10213000D31AFB61FB689B68FA699A4202D9FB6873
:102140009B68FB61FB6903339B08BB612BE0FB6869
:102150005A69FB689B69D31AFB61FB689B68FA6943
:102160009A4202D9FB689B68FB61FB6903339B08B9
:10217000BB61FB68D9683B68DAB2FB6998B27B68DF
:102180001B69DBB200930346786901F02AFAFB6809
:10219000DA68FB691A44FB68DA60FB689A69FB69D4
:1021A0001A44FB689A613B685A013B69134403F582
:1021B00010639B699BB2BA699A4209D8FB689A6915
:1021C000FB685B699A4203D2FB685B69002BBED156
:1021D000FB685A69FB689B699A4211D83B6803F017
:1021E0000F03012202FA03F3BB603B6903F50063AE
:1021F0005A6BBB68DB43396901F5006113404B63DF
:10220000002318462037BD4680BD000080B586B04B
:1022100000AF786039607B681B687B617B693B61DC
:102220007B693C3304331B68FB603B685A013B69A4
:10223000134403F530639B68BB607B681B69012B0B
:1022400040F0A080BB6803F00803002B15D0FB68AA
:10225000724A934240F2DD80BB6803F40043002BD6
:1022600000F0D7803B685A013B69134403F53063A3
:102270001A464FF400439360CBE0BB6803F02003A1
:10228000002B09D03B685A013B69134403F53063C6
:102290001A4620239360BCE0BB6803F02803002BA0
:1022A00040F0B780FB685D4A93420FD9BB6803F4E6
:1022B0000043002B0AD03B685A013B69134403F5E5
:1022C00030631A464FF400439360A2E079683A689D
:1022D0001346DB009B1A9B000B4403F501731A683D
:1022E0003B6859013B690B4403F530631B69C3F339
:1022F0001203D11A78683A681346DB009B1A9B00D8
:10230000034403F50573196079683A681346DB00E6
:102310009B1A9B000B4403F50273196878683A68AE
:102320001346DB009B1A9B00034403F501731B68F3
:10233000194478683A681346DB009B1A9B000344F3
:1023400003F5027319603B68002B14D179683A6871
:102350001346DB009B1A9B000B4403F504731B68B8
:10236000002B08D17B6818687B6803F571731A46E7
:10237000012101F095FB3B68DBB219467868FEF756
:10238000C9FC46E0FB68264A934224D1BB6803F4AB
:102390000043002B0AD03B685A013B69134403F504
:1023A00030631A464FF40043936032E0BB6803F099
:1023B0002003002B08D03B685A013B69134403F506
:1023C00030631A46202393603B68DBB21946786875
:1023D000FEF7A0FC1DE03B68002B14D179683A6839
:1023E0001346DB009B1A9B000B4403F504731B6828
:1023F000002B08D17B6818687B6803F571731A4657
:10240000002101F04DFB3B68DBB219467868FEF70E
:1024100081FC002318461837BD4680BD0A30544F52
:102420000A31544F80B586B000AF786039607B6860
:102430001B687B617B693B617B693C3304331B68B0
:10244000FB603B685A013B69134403F530639B68AA
:10245000BB60FB68154A93420ED9BB6803F4004386
:10246000002B09D03B685A013B69134403F53063E4
:102470001A464FF4004393607868FEF739FCFB6816
:102480000A4A93420CD97B681B69012B08D17B68EF
:1024900018687B6803F571731A46012101F000FB8F
:1024A000002318461837BD4680BD00BF0A30544F80
:1024B00080B485B000AF78600B46FB7013463B805C
:1024C0007B681B685B6ABB60FB78002B07D13B888D
:1024D00019047B681B68BA680A439A6228E07B6823
:1024E0001B689B6A1B0CBA681344BB600023FB7318
:1024F0000DE07B681A68FB7B40339B0013445B68EC
:102500001B0CBA681344BB60FB7B0133FB73FA7B83
:10251000FB78013B9A42ECD33B8818047B6819682E
:10252000FB78013BBA68024340339B000B445A607E
:10253000002318461437BD465DF8047B704780B40D
:1025400083B000AF78600B467B807B681B687A881D
:102550005A62002318460C37BD465DF8047B70476D
:1025600080B483B000AF78600B46FB7000BF0C37BF
:10257000BD465DF8047B704784B080B584B000AF81
:10258000786007F11C0080E80E003B6B012B22D124
:102590007B689B6B23F480327B689A637B68DB6883
:1025A00023F4840323F040037A68D3607B68DB68FC
:1025B00023F440127B68DA60FB6C012B05D17B6849
:1025C000DB6843F480127B68DA60786801F0C6FA51
:1025D0000346FB731AE07B68DB6843F040027B68CC
:1025E000DA60786801F0BAFA0346FB733B6C002BA3
:1025F00006D17B689B6B43F480327B689A6305E06D
:102600007B689B6B23F480327B689A63BB6A012BE7
:102610000BD17B689B6843F006027B689A607B68FD
:102620009B6843F020027B689A60FB7B184610375A
:10263000BD46BDE8804004B07047000080B487B05C
:1026400000AFF860B9601346FB71FB79022B65D1CE
:10265000BB68414A934206D9BB68404A934202D2C2
:102660000F237B6162E0BB683C4A934206D3BB68A0
:102670003B4A934202D20E237B6157E0BB68384A43
:10268000934206D3BB68374A934202D20D237B6143
:102690004CE0BB68334A934206D3BB68324A93424C
:1026A00002D80C237B6141E0BB682F4A934206D9D4
:1026B000BB682E4A934202D80B237B6136E0BB688D
:1026C0002A4A934206D9BB68294A934202D80A2370
:1026D0007B612BE0BB68264A934206D9BB68254A3A
:1026E000934202D209237B6120E0BB68214A9342D6
:1026F00006D3BB68204A934202D808237B6115E0C9
:10270000BB681D4A934206D9BB681C4A934202D259
:1027100007237B610AE006237B6107E0FB79002B3E
:1027200002D109237B6101E009237B61FB68DB683F
:1027300023F47052FB68DA60FB68DA687B699B02FD
:1027400003F470531A43FB68DA60002318461C3701
:10275000BD465DF8047B7047BFACD800C0E1E40023
:102760000024F400807306019F491A01FF2C3101F7
:102770003FA44C0100366E011FABA6010048E801E2
:1027800080B483B000AF78607B689B6843F001023F
:102790007B689A60002318460C37BD465DF8047BC1
:1027A000704780B483B000AF78607B689B6823F08B
:1027B00001027B689A60002318460C37BD465DF81D
:1027C000047B704780B582B000AF78600B46FB7029
:1027D0007B68DB6823F0C0427B68DA60FB78012B02
:1027E00006D17B68DB6843F000527B68DA600BE05F
:1027F000FB78002B06D17B68DB6843F080427B6866
:10280000DA6001E0012303E0322002F047F90023FF
:1028100018460837BD4680BD84B080B586B000AF8D
:10282000786007F1240080E80E000023FB757B68C8
:10283000FB6000233B6109E07A683B6940339B0001
:10284000134400225A603B6901333B613B690E2B04
:10285000F2D9FB6C002B1CD1FB6803F500635B68AD
:10286000FA6802F5006243F0020353607B689B6BD9
:1028700043F400127B689A637B689B6B23F400220D
:102880007B689A637B689B6B23F480227B689A63E6
:102890000BE07B689B6B23F400127B689A637B6878
:1028A0009B6B43F400227B689A63FB6803F56063CB
:1028B0001A4600231360FB6803F500631946FB68A2
:1028C00003F500631A460B681360BB6B012B0CD138
:1028D000FB6A002B04D10021786800F049F908E078
:1028E0000121786800F044F903E00321786800F0E2
:1028F0003FF91021786800F0F3F80346002B01D06F
:102900000123FB75786800F011F90346002B01D014
:102910000123FB75FB6803F500631A46002313616E
:10292000FB6803F500631A4600235361FB6803F557
:1029300000631A460023D36100233B6143E03B69F7
:102940005A01FB68134403F510631B6803F000434E
:10295000B3F1004F18D13B69002B0AD13B695A01F2
:10296000FB68134403F510631A464FF000631360CD
:1029700013E03B695A01FB68134403F510631A46E0
:102980004FF09043136008E03B695A01FB68134421
:1029900003F510631A46002313603B695A01FB6874
:1029A000134403F510631A46002313613B695A016F
:1029B000FB68134403F510631A464FF67F339360A8
:1029C0003B6901333B617B6A3A699A42B7D3002382
:1029D0003B6143E03B695A01FB68134403F53063F4
:1029E0001B6803F00043B3F1004F18D13B69002B83
:1029F0000AD13B695A01FB68134403F530631A4658
:102A00004FF00063136013E03B695A01FB68134405
:102A100003F530631A464FF09043136008E03B69BA
:102A20005A01FB68134403F530631A460023136010
:102A30003B695A01FB68134403F530631A460023CF
:102A400013613B695A01FB68134403F530631A466E
:102A50004FF67F3393603B6901333B617B6A3A6990
:102A60009A42B7D3FB6803F500631B69FA6802F565
:102A7000006223F4807313617B6800229A617B6893
:102A80006FF080425A613B6B002B05D17B689B69DC
:102A900043F010027B689A617B689A690F4B13437D
:102AA0007A689361FB6B002B05D07B689B6943F0D0
:102AB00008027B689A61FB6C012B07D17B689B69DC
:102AC00043F0804343F004037A689361FB7D18462A
:102AD0001837BD46BDE8804004B0704700383C80E0
:102AE00080B485B000AF786039600023FB603B683C
:102AF0009B0143F020027B681A61FB680133FB6095
:102B0000FB68094A934201D9032306E07B681B69ED
:102B100003F02003202BF0D0002318461437BD46C5
:102B20005DF8047B704700BF400D030080B485B0A2
:102B300000AF78600023FB607B6810221A61FB689D
:102B40000133FB60FB68094A934201D9032306E085
:102B50007B681B6903F01003102BF0D0002318468C
:102B60001437BD465DF8047B704700BF400D03007D
:102B700080B485B000AF78600B46FB707B68FB606B
:102B8000FB6803F500631A68FB78F96801F50061DA
:102B900013430B60002318461437BD465DF8047BD1
:102BA000704780B487B000AF78607B683B613B6959
:102BB00003F500639B6803F00603FB60FB68002BD2
:102BC00002D10023FB750AE0FB68022B02D0FB68F0
:102BD000062B02D10223FB7501E00F23FB75FB7D61
:102BE00018461C37BD465DF8047B704780B485B03D
:102BF00000AF786039607B68FB603B681B78BB6026
:102C00003B685B78012B3AD1FB6803F50063DA6916
:102C10003B681B7803F00F03012101FA03F39BB219
:102C2000F96801F500611343CB61BB685A01FB6889
:102C3000134403F510631B6803F40043002B55D1C4
:102C4000BB685A01FB68134403F510631A683B68BC
:102C50009B68C3F30A013B68DB789B041943BB689C
:102C60009B050B431343BA685101FA680A4402F505
:102C7000106243F0805343F40043136036E0FB6876
:102C800003F50063DA693B681B7803F00F03012149
:102C900001FA03F31B04F96801F500611343CB61EA
:102CA000BB685A01FB68134403F530631B6803F4E7
:102CB0000043002B1AD1BB685A01FB68134403F58B
:102CC00030631A683B689B68C3F30A013B68DB7892
:102CD0009B040B431343BA685101FA680A4402F596
:102CE000306243F0805343F40043136000231846DE
:102CF0001437BD465DF8047B7047000080B485B092
:102D000000AF786039607B68FB603B681B78BB6014
:102D10003B685B78012B61D1BB685A01FB681344A7
:102D200003F510631B6803F00043B3F1004F1FD19C
:102D3000BB685A01FB68134403F510631B68BA684B
:102D40005101FA680A4402F5106243F0006313600F
:102D5000BB685A01FB68134403F510631B68BA682B
:102D60005101FA680A4402F5106243F0804313608F
:102D7000FB6803F50063DA6B3B681B7803F00F0315
:102D8000012101FA03F39BB2DB43F96801F500610D
:102D90001340CB63FB6803F50063DA693B681B787B
:102DA00003F00F03012101FA03F39BB2DB43F9683F
:102DB00001F500611340CB61BB685A01FB68134405
:102DC00003F510631A68BB685901FB680B4403F5EF
:102DD00010631946354B13400B6060E0BB685A0125
:102DE000FB68134403F530631B6803F00043B3F141
:102DF000004F1FD1BB685A01FB68134403F53063D1
:102E00001B68BA685101FA680A4402F5306243F05F
:102E100000631360BB685A01FB68134403F5306319
:102E20001B68BA685101FA680A4402F5306243F03F
:102E300080431360FB6803F50063DA6B3B681B7823
:102E400003F00F03012101FA03F31B04DB43F968CC
:102E500001F500611340CB63FB6803F50063DA6999
:102E60003B681B7803F00F03012101FA03F31B04F5
:102E7000DB43F96801F500611340CB61BB685A017F
:102E8000FB68134403F530631A68BB685901FB689B
:102E90000B4403F530631946054B13400B600023C8
:102EA00018461437BD465DF8047B7047007833EC54
:102EB0000078F3EF80B58AB002AFF860B9601346CE
:102EC000FB71FB68FB61BB681B78BB61BB685B780F
:102ED000012B40F05C81BB685B69002B32D1BB6980
:102EE0005A01FB69134403F510631B69BA69510168
:102EF000FA690A4402F5106223F0FF5323F4C01369
:102F00001361BB695A01FB69134403F510631B6924
:102F1000BA695101FA690A4402F5106243F40023C8
:102F20001361BB695A01FB69134403F510631B6904
:102F3000BA695101FA690A4402F51062DB0CDB043C
:102F4000136174E0BB695A01FB69134403F5106314
:102F50001B69BA695101FA690A4402F51062DB0C77
:102F6000DB041361BB695A01FB69134403F5106369
:102F70001B69BA695101FA690A4402F5106223F02B
:102F8000FF5323F4C0131361BB695A01FB69134457
:102F900003F510631A69BB685969BB689B680B44E9
:102FA000591EBB689B68B1FBF3F3D9049D4B0B40E2
:102FB000B9694801F969014401F5106113430B61D6
:102FC000BB695A01FB69134403F510631A69BB68B6
:102FD0005B69C3F31203B9694801F969014401F55A
:102FE000106113430B61BB68DB78012B1FD1BB69F8
:102FF0005A01FB69134403F510631B69BA69510157
:10300000FA690A4402F5106223F0C0431361BB69F8
:103010005A01FB69134403F510631B69BA69510136
:10302000FA690A4402F5106243F000531361FB7918
:10303000012B4BD1BB681B69002B09D0BB695A011E
:10304000FB69134403F510631A46BB681B6953619F
:10305000BB68DB78012B28D1FB6903F500639B6813
:1030600003F48073002B10D1BB695A01FB69134430
:1030700003F510631B68BA695101FA690A4402F545
:10308000106243F0005313600FE0BB695A01FB6903
:10309000134403F510631B68BA695101FA690A44C5
:1030A00002F5106243F080531360BB695A01FB695B
:1030B000134403F510631B68BA695101FA690A44A5
:1030C00002F5106243F0044313602FE1BB695A011B
:1030D000FB69134403F510631B68BA695101FA696F
:1030E0000A4402F5106243F004431360BB68DB78C6
:1030F000012B15D0BB685B69002B00F01781FB69C1
:1031000003F500635A6BBB681B7803F00F030121C2
:1031100001FA03F3F96901F5006113434B6305E11B
:10312000FB6903F500639B6803F48073002B10D1E7
:10313000BB695A01FB69134403F510631B68BA6944
:103140005101FA690A4402F5106243F0005313601A
:103150000FE0BB695A01FB69134403F510631B6858
:10316000BA695101FA690A4402F5106243F08053CA
:103170001360BB68D968BB681A78BB685B6998B292
:10318000FB7900930346F86800F02BFACEE0BB69A8
:103190005A01FB69134403F530631B69BA69510195
:1031A000FA690A4402F53062DB0CDB041361BB6987
:1031B0005A01FB69134403F530631B69BA69510175
:1031C000FA690A4402F5306223F0FF5323F4C01376
:1031D0001361BB685B69002B26D1BB695A01FB698F
:1031E000134403F530631A69BB689B68C3F3120389
:1031F000B9694801F969014401F5306113430B6174
:10320000BB695A01FB69134403F530631B69BA6952
:103210005101FA690A4402F5306243F40023136154
:1032200036E000BF0000F81FBB685A69BB689B68A6
:1032300013445A1EBB689B68B2FBF3F3FB82BB6965
:103240005A01FB69134403F530631A69FB8AD904F8
:10325000394B0B40B9694801F969014401F5306106
:1032600013430B61BB695A01FB69134403F53063D7
:103270001A69BB689B68F98A01FB03F3C3F3120365
:10328000B9694801F969014401F5306113430B61E3
:10329000FB79012B0DD1BB68DB68002B09D0BB6823
:1032A000D968BB695A01FB69134403F530630A46C8
:1032B0005A61BB68DB78012B28D1FB6903F50063F9
:1032C0009B6803F48073002B10D1BB695A01FB6922
:1032D000134403F530631B68BA695101FA690A4463
:1032E00002F5306243F0005313600FE0BB695A01EE
:1032F000FB69134403F530631B68BA695101FA692D
:103300000A4402F5306243F080531360BB695A01EE
:10331000FB69134403F530631B68BA695101FA690C
:103320000A4402F5306243F0044313600023184658
:103330002037BD4680BD00BF0000F81F80B487B0B5
:1033400000AFF860B9601346FB71FB687B61BB6836
:103350001B783B61BB685B78012B40F0CD80BB687C
:103360005B69002B32D13B695A017B69134403F539
:1033700010631B693A6951017A690A4402F51062C7
:1033800023F0FF5323F4C01313613B695A017B6997
:10339000134403F510631B693A6951017A690A44C1
:1033A00002F5106243F4002313613B695A017B6903
:1033B000134403F510631B693A6951017A690A44A1
:1033C00002F51062DB0CDB0413614EE03B695A012D
:1033D0007B69134403F510631B693A6951017A69EB
:1033E0000A4402F51062DB0CDB0413613B695A01ED
:1033F0007B69134403F510631B693A6951017A69CB
:103400000A4402F5106223F0FF5323F4C013136142
:10341000BB685A69BB689B689A4203D9BB689A68C3
:10342000BB685A613B695A017B69134403F5106319
:103430001B693A6951017A690A4402F5106243F442
:10344000002313613B695A017B69134403F5106340
:103450001A69BB685B69C3F312033969480179696A
:10346000014401F5106113430B61FB79012B1ED15F
:10347000BB681B69002B09D03B695A017B69134467
:1034800003F510631A46BB681B6953613B695A0117
:103490007B69134403F510631B683A6951017A692B
:1034A0000A4402F5106243F00443136092E03B6962
:1034B0005A017B69134403F510631B683A69510193
:1034C0007A690A4402F5106243F004431360BB6852
:1034D0005B69002B7ED07B6903F500635A6BBB6888
:1034E0001B7803F00F03012101FA03F3796901F559
:1034F000006113434B636DE03B695A017B691344E0
:1035000003F530631B693A6951017A690A4402F58F
:103510003062DB0CDB0413613B695A017B691344A5
:1035200003F530631B693A6951017A690A4402F56F
:10353000306223F0FF5323F4C0131361BB685B694F
:10354000002B03D0BB689A68BB685A613B695A017B
:103550007B69134403F530631B693A6951017A6949
:103560000A4402F5306243F4002313613B695A01B7
:103570007B69134403F530631A69BB689B68C3F326
:103580001203396948017969014401F53061134337
:103590000B61FB79012B0DD1BB68DB68002B09D0D7
:1035A000BB68D9683B695A017B69134403F53063F2
:1035B0000A465A613B695A017B69134403F530633B
:1035C0001B683A6951017A690A4402F5306243F096
:1035D00004431360002318461C37BD465DF8047B86
:1035E000704780B489B000AFF860B96011461A46E0
:1035F0000B46FB711346BB80FB687B61BB68FB61BC
:1036000097F82830002B1AD1BB8803339B083B6105
:103610000023BB610FE0FB791A037B69134403F5B8
:1036200080531A46FB691B681360FB690433FB6116
:10363000BB690133BB61BA693B699A42EBD3002392
:1036400018462437BD465DF8047B704780B489B0C6
:1036500000AFF860B9601346FB80FB687B61BB6814
:10366000FB61FB8803339B083B610023BB610BE0DC
:103670007B6903F580531A68FB691A60FB690433A0
:10368000FB61BB690133BB61BA693B699A42EFD305
:10369000FB6918462437BD465DF8047B704780B44B
:1036A00085B000AF786039607B68FB603B681B7851
:1036B000BB603B685B78012B2CD1BB685A01FB686F
:1036C000134403F510631B68002B12DBBB68002B4F
:1036D0000FD0BB685A01FB68134403F510631B68E5
:1036E000BA685101FA680A4402F5106223F0804377
:1036F0001360BB685A01FB68134403F510631B6831
:10370000BA685101FA680A4402F5106243F40013E2
:1037100013602BE0BB685A01FB68134403F5306368
:103720001B68002B12DBBB68002B0FD0BB685A0153
:10373000FB68134403F530631B68BA685101FA68EB
:103740000A4402F5306223F080431360BB685A01DB
:10375000FB68134403F530631B68BA685101FA68CB
:103760000A4402F5306243F4001313600023184644
:103770001437BD465DF8047B704780B485B000AF58
:10378000786039607B68FB603B681B78BB603B6896
:103790005B78012B28D1BB685A01FB68134403F501
:1037A00010631B68BA685101FA680A4402F5106296
:1037B00023F4001313603B68DB78032B03D03B68D2
:1037C000DB78022B38D1BB685A01FB68134403F540
:1037D00010631B68BA685101FA680A4402F5106266
:1037E00043F08053136027E0BB685A01FB68134421
:1037F00003F530631B68BA685101FA680A4402F5A0
:10380000306223F4001313603B68DB78032B03D092
:103810003B68DB78022B0FD1BB685A01FB6813446D
:1038200003F530631B68BA685101FA680A4402F56F
:10383000306243F080531360002318461437BD46AE
:103840005DF8047B704780B485B000AF78600B46AC
:10385000FB707B68FB60FB6803F500631B68FA681C
:1038600002F5006223F4FE631360FB6803F5006356
:103870001A68FB781B0103F4FE63F96801F5006127
:1038800013430B60002318461437BD465DF8047BD4
:10389000704780B485B000AF78607B68FB60FB68E0
:1038A00003F560631B68FA6802F5606223F00303A6
:1038B0001360FB6803F500635B68FA6802F5006259
:1038C00023F002035360002318461437BD465DF809
:1038D000047B704780B485B000AF78607B68FB6084
:1038E000FB6803F560631B68FA6802F5606223F009
:1038F00003031360FB6803F500635B68FA6802F575
:10390000006243F002035360002318461437BD469B
:103910005DF8047B704780B485B000AF78607B6849
:103920005B69FB607B689B69FA681340FB60FB681E
:1039300018461437BD465DF8047B704780B485B0E7
:1039400000AF78607B68FB60FB6803F500639B69F0
:10395000BB60FB6803F50063DB69BA681340BB60BA
:10396000BB681B0C18461437BD465DF8047B7047D6
:1039700080B485B000AF78607B68FB60FB6803F5BE
:1039800000639B69BB60FB6803F50063DB69BA6891
:103990001340BB60BB689BB218461437BD465DF848
:1039A000047B704780B485B000AF78600B46FB7035
:1039B0007B68FB60FB785A01FB68134403F53063B6
:1039C0009B68BB60FB6803F500635B69BA681340E2
:1039D000BB60BB6818461437BD465DF8047B704772
:1039E00080B487B000AF78600B46FB707B687B616A
:1039F0007B6903F500631B693B617B6903F5006329
:103A00005B6BFB60FB7803F00F03FA6822FA03F3A9
:103A1000DB01DBB23A6913433B61FB785A017B69F6
:103A2000134403F510639B683A691340BB60BB689D
:103A300018461C37BD465DF8047B704780B483B0E0
:103A400000AF78607B685B6903F0010318460C37B0
:103A5000BD465DF8047B704780B485B000AF7860E8
:103A60007B68FB60FB6803F510631B68FA6802F56E
:103A7000106223F4FF6323F007031360FB6803F570
:103A800000635B68FA6802F5006243F48073536078
:103A9000002318461437BD465DF8047B70470000CC
:103AA00080B487B000AFF8600B467A60FB72FB68A9
:103AB0007B61FB683C3304331B683B613B69264AEE
:103AC00093420AD97B6903F530631B6803F0004316
:103AD000B3F1004F01D1002337E07B6903F5306378
:103AE0001A46002313617B6903F530631B697A6909
:103AF00002F5306243F4002313617B6903F5306300
:103B00001B697A6902F5306243F0180313617B691F
:103B100003F530631B697A6902F5306243F0C043F4
:103B20001361FB7A012B0FD17B6903F530631A46D1
:103B30007B6853617B6903F530631B687A6902F522
:103B4000306243F080231360002318461C37BD46C3
:103B50005DF8047B704700BF0A30544F80B485B0D5
:103B600000AF78600023FB60FB680133FB60FB68FB
:103B7000134A934201D903231BE07B681B69002B86
:103B8000F2DA0023FB607B681B6943F001027B686B
:103B90001A61FB680133FB60FB68094A934201D953
:103BA000032306E07B681B6903F00103012BF0D0BF
:103BB000002318461437BD465DF8047B704700BFEC
:103BC000400D030080B586B000AF78607B68002BA5
:103BD00001D1012364E27B681B6803F00103002B21
:103BE00075D0A34B9B6803F00C03042B0CD0A04BA7
:103BF0009B6803F00C03082B12D19D4B5B6803F408
:103C00008003B3F5800F0BD1994B1B6803F400338D
:103C1000002B5BD07B685B68002B57D101233FE210
:103C20007B685B68B3F5803F06D1914B1B68904A77
:103C300043F4803313601DE07B685B68B3F5A02F0D
:103C40000CD18B4B1B688A4A43F480231360884B4A
:103C50001B68874A43F4803313600BE0844B1B6876
:103C6000834A23F480331360814B1B68804A23F41A
:103C7000802313607B685B68002B13D000F002FF89
:103C8000386108E000F0FEFE02463B69D31A642B5F
:103C900001D9032304E2764B1B6803F40033002BA5
:103CA000F0D014E000F0EEFE386108E000F0EAFE2B
:103CB00002463B69D31A642B01D90323F0E16C4B14
:103CC0001B6803F40033002BF0D100E000BF7B68D9
:103CD0001B6803F00203002B63D0654B9B6803F065
:103CE0000C03002B0BD0624B9B6803F00C03082BDA
:103CF0001CD15F4B5B6803F48003002B16D15C4B37
:103D00001B6803F00203002B05D07B68DB68012BE6
:103D100001D00123C4E1564B1B6823F0F8027B68F5
:103D20001B69DB00524913430B603AE07B68DB6898
:103D3000002B20D04F4B01221A6000F0A3FE386107
:103D400008E000F09FFE02463B69D31A022B01D91E
:103D50000323A5E1464B1B6803F00203002BF0D0C0
:103D6000434B1B6823F0F8027B681B69DB0040496A
:103D700013430B6015E03F4B00221A6000F082FEF7
:103D8000386108E000F07EFE02463B69D31A022B40
:103D900001D9032384E1364B1B6803F00203002B97
:103DA000F0D17B681B6803F00803002B30D07B68E0
:103DB0005B69002B16D0304B01221A6000F062FEC6
:103DC000386108E000F05EFE02463B69D31A022B20
:103DD00001D9032364E1264B5B6F03F00203002B40
:103DE000F0D015E0244B00221A6000F04BFE386141
:103DF00008E000F047FE02463B69D31A022B01D9C6
:103E000003234DE11A4B5B6F03F00203002BF0D14B
:103E10007B681B6803F00403002B00F0A0800023E4
:103E2000FB75134B1B6C03F08053002B0FD1002349
:103E3000BB600F4B1B6C0E4A43F0805313640C4B5A
:103E40001B6C03F08053BB60BB680123FB750B4BFD
:103E50001B6803F48073002B21D1084B1B68074AB1
:103E600043F48073136000F00DFE386111E000BF71
:103E70000038024000004742800E47420070004078
:103E800000F000FE02463B69D31A022B01D903233E
:103E900006E1854B1B6803F48073002BF0D07B6830
:103EA0009B68012B06D1814B1B6F804A43F00103B5
:103EB00013671CE07B689B68052B0CD17B4B1B6F49
:103EC0007A4A43F004031367784B1B6F774A43F039
:103ED000010313670BE0754B1B6F744A23F001035A
:103EE0001367724B1B6F714A23F0040313677B68DF
:103EF0009B68002B15D000F0C5FD38610AE000F08A
:103F0000C1FD02463B69D31A41F28832934201D97E
:103F10000323C5E0654B1B6F03F00203002BEED0BB
:103F200014E000F0AFFD38610AE000F0ABFD02469E
:103F30003B69D31A41F28832934201D90323AFE09F
:103F40005A4B1B6F03F00203002BEED1FB7D012BBC
:103F500005D1564B1B6C554A23F0805313647B6884
:103F60009B69002B00F09B80504B9B6803F00C0377
:103F7000082B5CD07B689B69022B41D14C4B002203
:103F80001A6000F07FFD386108E000F07BFD02461A
:103F90003B69D31A022B01D9032381E0434B1B68F1
:103FA00003F00073002BF0D17B68DA697B681B6A31
:103FB0001A437B685B6A9B011A437B689B6A5B08B8
:103FC000013B1B041A437B68DB6A1B06374913431A
:103FD0004B60374B01221A6000F054FD386108E055
:103FE00000F050FD02463B69D31A022B01D903238E
:103FF00056E02E4B1B6803F00073002BF0D04EE010
:104000002B4B00221A6000F03DFD386108E000F003
:1040100039FD02463B69D31A022B01D903233FE045
:10402000224B1B6803F00073002BF0D137E07B6854
:104030009B69012B01D1012332E01C4B5B68FB60C3
:104040007B689B69012B28D0FB6803F480027B68A6
:10405000DB699A4221D1FB6803F03F027B681B6A4F
:104060009A421AD1FA6847F6C07313407A68526AC6
:104070009201934211D1FB6803F440327B689B6A42
:104080005B08013B1B049A4207D1FB6803F0706296
:104090007B68DB6A1B069A4201D0012300E0002303
:1040A00018461837BD4680BD0070004000380240F9
:1040B0006000474280B584B000AF786039607B68AB
:1040C000002B01D10123CCE0684B1B6803F00703F0
:1040D0003A689A420CD9654B3A68D2B21A70634B6F
:1040E0001B6803F007033A689A4201D00123B8E045
:1040F0007B681B6803F00203002B20D07B681B68E1
:1041000003F00403002B05D0594B9B68584A43F435
:10411000E05393607B681B6803F00803002B05D015
:10412000534B9B68524A43F460439360504B9B68E7
:1041300023F0F0027B689B684D4913438B607B68DA
:104140001B6803F00103002B44D07B685B68012BE4
:1041500007D1474B1B6803F40033002B19D101230F
:104160007FE07B685B68022B03D07B685B68032B76
:1041700007D13F4B1B6803F00073002B09D10123CB
:104180006FE03B4B1B6803F00203002B01D10123BE
:1041900067E0374B9B6823F003027B685B68344918
:1041A00013438B6000F06EFCF8600AE000F06AFCDC
:1041B0000246FB68D31A41F28832934201D90323A5
:1041C0004FE02B4B9B6803F00C027B685B689B0005
:1041D0009A42EBD1254B1B6803F007033A689A42D9
:1041E0000CD2224B3A68D2B21A70204B1B6803F0F3
:1041F00007033A689A4201D0012332E07B681B68CA
:1042000003F00403002B08D0194B9B6823F4E05201
:104210007B68DB68164913438B607B681B6803F07F
:104220000803002B09D0124B9B6823F460427B6883
:104230001B69DB000E4913438B6000F021F8024636
:104240000B4B9B681B0903F00F030A49CB5C22FA56
:1042500003F3094A1360094B1B68184600F0CEFBB4
:10426000002318461037BD4680BD00BF003C024009
:104270000038024040750008940000208C000020A7
:104280002DE9B04384B000AF00237B600023FB60C6
:1042900000233B600023BB60674B9B6803F00C036B
:1042A000082B0DD0082B00F2BD80002B02D0042B70
:1042B00003D0B7E0614BBB60B7E0614BBB60B4E0DB
:1042C0005D4B5B6803F03F037B605B4B5B6803F413
:1042D0008003002B4DD0584B5B689B091A464FF06A
:1042E000000340F2FF104FF0000102EA000803EA69
:1042F0000109404649464FF000024FF000034B01D0
:1043000043EAD063420110461946B0EB080061EB66
:1043100009014FF000024FF000038B0143EA906364
:104320008201121A63EB01034FF000004FF000010D
:10433000D90041EA5271D00002460B4612EB080246
:1043400043EB09034FF000004FF00001590241EA2E
:10435000D251500202460B46104619467B681A4657
:104360004FF00003FBF784FF02460B461346FB6049
:104370004AE0314B5B689B091A464FF0000340F25C
:10438000FF104FF0000102EA000403EA0105204695
:1043900029464FF000024FF000034B0143EAD0637F
:1043A000420110461946001B61EB05014FF0000267
:1043B0004FF000038B0143EA90638201121A63EB12
:1043C00001034FF000004FF00001D90041EA5271A3
:1043D000D00002460B46121945EB03034FF00000D4
:1043E0004FF00001990241EA9251900202460B46B9
:1043F000104619467B681A464FF00003FBF738FF5A
:1044000002460B461346FB600B4B5B681B0C03F02C
:10441000030301335B003B60FA683B68B2FBF3F3D4
:10442000BB6002E0054BBB6000BFBB68184610379D
:10443000BD46BDE8B08300BF003802400024F40050
:1044400000127A0080B400AF034B1B681846BD46CB
:104450005DF8047B704700BF9400002080B489B0F1
:1044600000AF7860396000237B6100233B6100234B
:10447000BB610023FB616BE10122FB6902FA03F3DC
:104480007B613B681B687A6913403B613A697B69D1
:104490009A4240F05A813B685B6803F00303012BAA
:1044A00005D03B685B6803F00303022B30D17B68C7
:1044B0009B68BB61FB695B00032202FA03F3DB43E9
:1044C000BA691340BB613B68DA68FB695B0002FABA
:1044D00003F3BA691343BB617B68BA699A607B686E
:1044E0005B68BB610122FB6902FA03F3DB43BA6933
:1044F0001340BB613B685B681B0903F00102FB6969
:1045000002FA03F3BA691343BB617B68BA695A6064
:104510003B685B6803F00303032B17D07B68DB6801
:10452000BB61FB695B00032202FA03F3DB43BA6958
:104530001340BB613B689A68FB695B0002FA03F3B6
:10454000BA691343BB617B68BA69DA603B685B6830
:1045500003F00303022B23D1FB69DA087B680832DE
:1045600053F82230BB61FB6903F007039B000F2265
:1045700002FA03F3DB43BA691340BB613B681A6973
:10458000FB6903F007039B0002FA03F3BA691343C4
:10459000BB61FB69DA087B680832B96943F822100D
:1045A0007B681B68BB61FB695B00032202FA03F3B3
:1045B000DB43BA691340BB613B685B6803F00302ED
:1045C000FB695B0002FA03F3BA691343BB617B68C2
:1045D000BA691A603B685B6803F08053002B00F0F7
:1045E000B4800023FB60604B5B6C5F4A43F4804304
:1045F00053645D4B5B6C03F48043FB60FB685B4A78
:10460000FB699B08023352F82330BB61FB6903F05E
:1046100003039B000F2202FA03F3DB43BA69134042
:10462000BB617B68524A93422BD07B68514A9342CC
:1046300025D07B68504A93421FD07B684F4A9342F3
:1046400019D07B684E4A934213D07B684D4A9342FF
:104650000DD07B684C4A934207D07B684B4A93420B
:1046600001D107230EE008230CE006230AE005230E
:1046700008E0042306E0032304E0022302E0012310
:1046800000E00023FA6902F0030292009340BA6945
:104690001343BB613549FB699B080233BA6941F892
:1046A00023203B4B1B68BB613B69DB43BA6913406A
:1046B000BB613B685B6803F48033002B03D0BA69AD
:1046C0003B691343BB61324ABB691360304B5B6883
:1046D000BB613B69DB43BA691340BB613B685B6804
:1046E00003F40033002B03D0BA693B691343BB6169
:1046F000274ABB695360264B9B68BB613B69DB4320
:10470000BA691340BB613B685B6803F48013002BFC
:1047100003D0BA693B691343BB611D4ABB6993600F
:104720001B4BDB68BB613B69DB43BA691340BB6170
:104730003B685B6803F40013002B03D0BA693B6944
:104740001343BB61124ABB69D360FB690133FB6150
:10475000FB690F2B7FF690AE00BF00BF2437BD462C
:104760005DF8047B704700BF00380240003801400C
:10477000000002400004024000080240000C024019
:10478000001002400014024000180240001C0240C9
:10479000003C014080B485B000AF78607B6803F0D6
:1047A0000703FB600C4BDB68BB60BA684FF6FF0386
:1047B0001340BB60FB681A02BB68134343F0BF633E
:1047C00043F40033BB60044ABB68D36000BF1437B6
:1047D000BD465DF8047B704700ED00E080B400AF9B
:1047E000044BDB681B0A03F007031846BD465DF85F
:1047F000047B704700ED00E080B483B000AF034657
:10480000FB7197F90730002B0BDBFB7903F01F02DC
:10481000074997F907305B09012000FA02F241F8D5
:10482000232000BF0C37BD465DF8047B704700BFF6
:1048300000E100E080B483B000AF03463960FB7153
:1048400097F90730002B0ADB3B68DAB20C4997F97D
:1048500007301201D2B20B4483F800230AE03B6810
:10486000DAB20849FB7903F00F03043B1201D2B21C
:104870000B441A7600BF0C37BD465DF8047B7047C9
:1048800000E100E000ED00E080B489B000AFF86026
:10489000B9607A60FB6803F00703FB61FB69C3F151
:1048A0000703042B28BF0423BB61FB690433062BD9
:1048B00002D9FB69033B00E000237B614FF0FF322C
:1048C000BB6902FA03F3DA43BB681A407B699A407A
:1048D0004FF0FF317B6901FA03F3D9437B680B404A
:1048E000134318462437BD465DF8047B704700002B
:1048F00080B582B000AF78607B68013BB3F1807F08
:1049000001D301230FE00A4A7B68013B53600F216A
:104910004FF0FF30FFF78EFF054B00229A60044BEB
:1049200007221A60002318460837BD4680BD00BF25
:1049300010E000E080B582B000AF78607868FFF7E3
:1049400029FF00BF0837BD4680BD80B586B000AFE7
:104950000346B9607A60FB7300237B61FFF73EFF7B
:1049600078617A68B9687869FFF78EFF024697F92F
:104970000F3011461846FFF75DFF00BF1837BD46E0
:1049800080BD80B582B000AF0346FB7197F9073058
:104990001846FFF731FF00BF0837BD4680BD80B520
:1049A00082B000AF78607868FFF7A2FF0346184630
:1049B0000837BD4680BD000080B500AF0E4B1B68B8
:1049C0000D4A43F4007313600B4B1B680A4A43F40F
:1049D00080631360084B1B68074A43F480731360BD
:1049E0000320FFF7A7FF002000F008F8FBF724FFE3
:1049F0000023184680BD00BF003C024080B582B055
:104A000000AF7860124B1A68124B1B7819464FF4AE
:104A10007A73B3FBF1F3B2FBF3F31846FFF7BFFF72
:104A20000346002B01D001230EE07B680F2B0AD830
:104A3000002279684FF0FF30FFF787FF064A7B6856
:104A40001360002300E0012318460837BD4680BDEF
:104A500094000020900000208C00002080B400AF63
:104A6000064B1B781A46064B1B681344044A136016
:104A700000BFBD465DF8047B704700BF900000207A
:104A80003C1D002080B400AF034B1B681846BD4698
:104A90005DF8047B704700BF3C1D002080B584B0EA
:104AA00000AF7860FFF7EEFFB8607B68FB60FB68E3
:104AB000B3F1FF3F05D00A4B1B781A46FB6813443D
:104AC000FB6000BFFFF7DEFF0246BB68D31AFA683F
:104AD0009A42F7D800BF00BF1037BD4680BD00BF67
:104AE0009000002080B400AF064BD3F88830054A10
:104AF00043F47003C2F8883000BFBD465DF8047B04
:104B0000704700BF00ED00E080B586B000AFF860F0
:104B1000B9601346FB71FB68002B01D103231FE032
:104B2000FB680022C3F8B822FB680022C3F8C02249
:104B3000FB680022C3F8CC22BB68002B03D0FB68C3
:104B4000BA68C3F8B422FB68012283F89C22FB6890
:104B5000FA791A70F868FCF7BDF90346FB75FB7D1E
:104B600018461837BD4680BD80B584B000AF786068
:104B700039600023FB813B68002B01D1032316E041
:104B80007B683A68C3F8B8227B68D3F8B832DB6A2E
:104B9000002B0BD07B68D3F8B832DB6A07F10E022A
:104BA0001046984702467B68C3F8CC22002318467B
:104BB0001037BD4680BD80B582B000AF78607868A0
:104BC000FCF7D4F9034618460837BD4680BD80B4CB
:104BD00083B000AF7860002318460C37BD465DF8FF
:104BE000047B704780B584B000AF78600B46FB70E3
:104BF0000323FB737B68D3F8B832002B09D07B68A2
:104C0000D3F8B8321B68FA7811467868984703469B
:104C1000FB73FB7B18461037BD4680BD80B582B064
:104C200000AF78600B46FB707B68D3F8B832002B7E
:104C300007D07B68D3F8B8325B68FA781146786899
:104C40009847002318460837BD4680BD80B584B01C
:104C500000AF786039607B6803F2AA233968184690
:104C600000F090FF7B680122C3F894227B68B3F8C0
:104C7000B0321A467B68C3F898227B6893F8AA3250
:104C800003F01F03022B1AD0022B22D8002B02D0D4
:104C9000012B0AD01DE07B6803F2AA23194678682D
:104CA00000F062FA0346FB7320E07B6803F2AA235C
:104CB0001946786800F0C6FA0346FB7316E07B6875
:104CC00003F2AA231946786800F005FB0346FB733C
:104CD0000CE07B6893F8AA3223F07F03DBB219461D
:104CE0007868FCF7A3F90346FB7300BFFB7B18460B
:104CF0001037BD4680BD80B586B000AFF8600B466A
:104D00007A60FB72FB7A002B38D1FB6803F5AA733B
:104D10003B61FB68D3F89432032B4AD13B699A6814
:104D20003B69DB689A4213D93B699A683B69DB6847
:104D3000D21A3B699A603B69DA683B699B68934287
:104D400028BF13461A467968F86801F00FF830E07A
:104D5000FB6893F89C32DBB2032B0BD1FB68D3F8D2
:104D6000B8321B69002B05D0FB68D3F8B8321B6939
:104D7000F8689847F86801F00AF81AE0FB6893F8B9
:104D80009C32DBB2032B14D1FB68D3F8B8329B6999
:104D9000002B0ED0FB68D3F8B8329B69FA7A114623
:104DA000F86898470346FB75FB7D002B01D0FB7D1F
:104DB00000E0002318461837BD4680BD80B586B098
:104DC00000AFF8600B467A60FB72FB7A002B6BD168
:104DD000FB6814333B61FB68D3F89432022B56D145
:104DE0003B699A683B69DB689A4214D93B699A68C7
:104DF0003B69DB68D21A3B699A603B699B681A463B
:104E00007968F86800F084FF002300220021F86828
:104E1000FCF7B6F93BE03B69DA683B699B689A426C
:104E20001CD13B695A683B69DB689A4216D33B69DF
:104E30005A68FB68D3F898329A420FD200220021B8
:104E4000F86800F065FFFB680022C3F89822002391
:104E500000220021F868FCF793F918E0FB6893F84A
:104E60009C32DBB2032B0BD1FB68D3F8B832DB6882
:104E7000002B05D0FB68D3F8B832DB68F868984798
:104E80008021F868FCF7D2F8F86800F093FFFB681F
:104E900093F8A032012B22D1F868FFF798FEFB6847
:104EA000002283F8A0221AE0FB6893F89C32DBB260
:104EB000032B14D1FB68D3F8B8325B69002B0ED0FA
:104EC000FB68D3F8B8325B69FA7A1146F8689847FC
:104ED0000346FB75FB7D002B01D0FB7D00E000232A
:104EE00018461837BD4680BD80B582B000AF7860E7
:104EF0007B68012283F89C227B680022C3F89422FD
:104F00007B6800225A607B680022C3F8A4227B6879
:104F1000D3F8B832002B01D103232FE07B68D3F8FC
:104F2000BC32002B0FD07B68D3F8B8325B68002B03
:104F300009D07B68D3F8B8325B687A685268D2B21D
:104F40001146786898474023002200217868FCF7D2
:104F500028F87B680122A3F864217B684022C3F80B
:104F600060214023002280217868FCF71AF87B68D2
:104F700001229A847B6840221A620023184608376F
:104F8000BD4680BD80B483B000AF78600B46FB7037
:104F90007B68FA781A74002318460C37BD465DF812
:104FA000047B704780B483B000AF78607B6893F86F
:104FB0009C32DAB27B6883F89D227B68042283F8F6
:104FC0009C22002318460C37BD465DF8047B7047D1
:104FD00080B483B000AF78607B6893F89C32DBB21A
:104FE000042B06D17B6893F89D32DAB27B6883F894
:104FF0009C22002318460C37BD465DF8047B7047A1
:1050000080B582B000AF78607B68D3F8B832002BEF
:1050100001D1032312E07B6893F89C32DBB2032BAF
:105020000BD17B68D3F8B832DB69002B05D07B68E5
:10503000D3F8B832DB6978689847002318460837F8
:10504000BD4680BD80B582B000AF78600B46FB7076
:105050007B68D3F8B832002B01D1032314E07B68BE
:1050600093F89C32DBB2032B0DD17B68D3F8B832B6
:105070001B6A002B07D07B68D3F8B8321B6AFA781A
:10508000114678689847002318460837BD4680BD0A
:1050900080B582B000AF78600B46FB707B68D3F8B8
:1050A000B832002B01D1032314E07B6893F89C32C3
:1050B000DBB2032B0DD17B68D3F8B8325B6A002BCF
:1050C00007D07B68D3F8B8325B6AFA781146786803
:1050D0009847002318460837BD4680BD80B483B08A
:1050E00000AF7860002318460C37BD465DF8047B9E
:1050F000704780B582B000AF78607B68012283F88A
:105100009C227B68D3F8B832002B09D07B68D3F897
:10511000B8325B687A685268D2B2114678689847AC
:10512000002318460837BD4680BD80B487B000AF65
:1051300078607B687B617B691B787B827B6901334C
:105140007B617B691B783B823B8A1B021AB2B7F9F1
:10515000123013431BB2FB81FB8918461C37BD4636
:105160005DF8047B7047000080B584B000AF7860C4
:1051700039600023FB733B681B7803F06003402B0E
:1051800005D0402B53D8002B0BD0202B4FD17B6860
:10519000D3F8B8329B683968786898470346FB7340
:1051A0004AE03B685B78092B3BD801A252F823F018
:1051B0000552000819520008235200080F52000837
:1051C00023520008E3510008D95100082352000877
:1051D000FB510008ED5100083968786800F0DEF9ED
:1051E00024E03968786800F043FB1FE0396878688C
:1051F00000F082FB0346FB7318E03968786800F022
:1052000021FC13E03968786800F052FC0EE0396840
:10521000786800F081FC09E03968786800F090FC5B
:1052200004E03968786800F0E7FC00BF04E0396802
:10523000786800F0E1FC00BFFB7B18461037BD46E4
:1052400080BD00BF80B584B000AF786039600023B6
:10525000FB733B681B7803F06003402B05D0402BA9
:105260002FD8002B01D0202B2BD17B6893F89C32B8
:10527000DBB2013B022B1DD83B689B88DBB2012BC4
:1052800013D87B68D3F8B8329B6839687868984738
:105290000346FB733B68DB88002B10D1FB7B002BA4
:1052A0000DD1786800F073FD09E03968786800F086
:1052B000A3FC04E03968786800F09EFC00E000BFC1
:1052C00004E03968786800F097FC00BFFB7B184663
:1052D0001037BD4680BD80B584B000AF78603960BE
:1052E0000023FB733B689B88BB733B681B7803F010
:1052F0006003402B07D0402B00F24581002B0CD0DF
:10530000202B40F040817B68D3F8B8329B68396825
:10531000786898470346FB733AE13B685B78032B58
:1053200007D0032B00F32981002B7FD0012B3CD029
:1053300023E17B6893F89C32DBB2022B02D0032B73
:1053400016D02CE0BB7B002B0DD0BB7B802B0AD072
:10535000BB7B19467868FBF769FE80217868FBF70C
:1053600065FE00BF20E03968786800F045FC1BE06E
:105370003B685B88002B0ED1BB7B002B0BD0BB7B2B
:10538000802B08D03B68DB88002B04D1BB7B1946FF
:105390007868FBF74BFE786800F0F9FC04E03968A8
:1053A000786800F029FC00BFECE07B6893F89C3241
:1053B000DBB2022B02D0032B16D030E0BB7B002BDC
:1053C0000DD0BB7B802B0AD0BB7B19467868FBF7DE
:1053D0002DFE80217868FBF729FE00BF25E03968A3
:1053E000786800F009FC20E03B685B88002B1BD14B
:1053F000BB7B03F07F03002B04D0BB7B194678688E
:10540000FBF733FE786800F0C2FC7B68D3F8B83253
:105410009B683968786898470346FB7304E03968ED
:10542000786800F0E9FB00E000BFABE07B6893F830
:105430009C32DBB2022B02D0032B32D097E0BB7B35
:10544000002B07D0BB7B802B04D03968786800F034
:10545000D3FB91E097F90E30002B0BDABB7B03F006
:105460007F0213469B0013449B0010337A68134459
:1054700004330BE0BB7B03F07F0213469B00134415
:105480009B0003F5A8737A6813440433BB60BB68C0
:1054900000221A60BB6802221946786800F01DFCE1
:1054A0006AE097F90E30002B11DABB7B03F00F0294
:1054B000796813469B0013449B000B4424331B88DC
:1054C000002B17D13968786800F096FB54E0BB7B5D
:1054D00003F00F02796813469B0013449B000B44B2
:1054E00003F5B2731B88002B04D13968786800F08B
:1054F00083FB41E097F90E30002B0BDABB7B03F006
:105500007F0213469B0013449B0010337A681344B8
:1055100004330BE0BB7B03F07F0213469B00134474
:105520009B0003F5A8737A6813440433BB60BB7B0C
:10553000002B02D0BB7B802B03D1BB6800221A60FA
:105540000EE0BB7B19467868FBF7AEFD0346002BE7
:1055500003D0BB6801221A6002E0BB6800221A6017
:10556000BB6802221946786800F0B7FB04E039688E
:10557000786800F041FB00BF04E03968786800F00B
:105580003BFB00BF04E03968786800F035FB00BFE2
:10559000FB7B18461037BD4680BD000080B584B047
:1055A00000AF7860396000233B810023FB6000235B
:1055B000FB723B685B881B0A9BB2013B062B00F227
:1055C000288101A252F823F0E5550008FD55000896
:1055D0003D5600081358000813580008B357000838
:1055E000DF5700087B68D3F8B4321B687A68127CF6
:1055F00007F1080110469847F86012E17B681B7CB0
:10560000002B0DD17B68D3F8B8329B6A07F10802F2
:1056100010469847F860FB68013302221A7000E1D7
:105620007B68D3F8B832DB6A07F108021046984766
:10563000F860FB68013302221A70F2E03B685B8875
:10564000DBB2052B00F2AC8001A252F823F000BFC0
:10565000695600089D560008D156000805570008F5
:10566000395700086D5700087B68D3F8B4325B687F
:10567000002B0BD07B68D3F8B4325B687A68127C5D
:1056800007F1080110469847F86091E0396878689A
:1056900000F0B2FAFB7A0133FB7289E07B68D3F841
:1056A000B4329B68002B0BD07B68D3F8B4329B6874
:1056B0007A68127C07F1080110469847F86077E095
:1056C0003968786800F098FAFB7A0133FB726FE072
:1056D0007B68D3F8B432DB68002B0BD07B68D3F83F
:1056E000B432DB687A68127C07F1080110469847EB
:1056F000F8605DE03968786800F07EFAFB7A013383
:10570000FB7255E07B68D3F8B4321B69002B0BD0D9
:105710007B68D3F8B4321B697A68127C07F1080100
:1057200010469847F86043E03968786800F064FAFA
:10573000FB7A0133FB723BE07B68D3F8B4325B69E0
:10574000002B0BD07B68D3F8B4325B697A68127C8B
:1057500007F1080110469847F86029E03968786831
:1057600000F04AFAFB7A0133FB7221E07B68D3F840
:10577000B4329B69002B0BD07B68D3F8B4329B69A1
:105780007A68127C07F1080110469847F8600FE02C
:105790003968786800F030FAFB7A0133FB7207E071
:1057A0003968786800F028FAFB7A0133FB7200BF91
:1057B00037E07B681B7C002B09D17B68D3F8B832BB
:1057C0005B6B07F1080210469847F86029E03968DA
:1057D000786800F011FAFB7A0133FB7221E07B68F4
:1057E0001B7C002B0DD17B68D3F8B8321B6B07F103
:1057F000080210469847F860FB68013307221A70C8
:105800000FE03968786800F0F7F9FB7A0133FB7232
:1058100007E03968786800F0EFF9FB7A0133FB7232
:1058200000BFFB7A002B1ED13B68DB88002B16D013
:105830003B89002B0ED03B68DA883B89934228BF16
:1058400013469BB23B813B891A46F968786800F0A1
:1058500044FA09E03968786800F0CEF904E0786825
:1058600000F095FA00E000BF1037BD4680BD00BFD4
:1058700080B584B000AF786039603B689B88002BAE
:1058800031D13B68DB88002B2DD13B685B887F2BB7
:1058900029D83B685B88DBB203F07F03FB737B682E
:1058A00093F89C32DBB2032B04D13968786800F09E
:1058B000A3F91DE07B68FA7B83F89E22FB7B1946E7
:1058C0007868FBF71DFC786800F061FAFB7B002B21
:1058D00004D07B68022283F89C2209E07B680122C5
:1058E00083F89C2204E03968786800F085F900BFED
:1058F00000BF1037BD4680BD80B584B000AF786072
:1059000039600023FB733B685B88DAB24C4B1A703A
:105910004B4B1B78012B05D93968786800F06CF97E
:10592000032388E07B6893F89C32DBB2022B02D021
:10593000032B25D071E0424B1B78002B1CD0404B31
:105940001B781A467B685A603D4B1B78194678686D
:10595000FFF748F90346FB73FB7B002B04D0396843
:10596000786800F049F965E0786800F010FA7B6823
:10597000032283F89C225DE0786800F008FA59E081
:105980002F4B1B78002B12D17B68022283F89C22BC
:105990002B4B1B781A467B685A60294B1B7819469B
:1059A0007868FFF73BF9786800F0F1F942E0244BA2
:1059B0001B781A467B685B689A422AD07B685B68D2
:1059C000DBB219467868FFF729F91D4B1B781A4698
:1059D0007B685A601A4B1B7819467868FFF702F902
:1059E0000346FB73FB7B002B0FD03968786800F00F
:1059F00003F97B685B68DBB219467868FFF70EF93C
:105A00007B68022283F89C2214E0786800F0BFF9DA
:105A100010E0786800F0BBF90CE03968786800F0B5
:105A2000EBF8074B1B7819467868FFF7F7F8032364
:105A3000FB7300BFFB7B18461037BD4680BD00BF1F
:105A40004C04002080B582B000AF786039603B68BC
:105A5000DB88012B04D03968786800F0CDF823E0AA
:105A60007B6893F89C32DBB2022B02DC002B03DC58
:105A700015E0032B0BD012E07B6800229A607B6854
:105A8000083301221946786800F027F90CE07B689A
:105A9000043301221946786800F01FF904E03968E0
:105AA000786800F0A9F800BF00BF0837BD4680BD88
:105AB00080B582B000AF786039607B6893F89C3223
:105AC000DBB2013B022B1ED83B68DB88022B04D0E3
:105AD0003968786800F090F81AE07B680122DA6093
